:020000040800F2
:100000000000022069860008CD3B0008CF3B0008B5
:10001000D13B0008D33B0008D53B0008000000009E
:10002000000000000000000000000000F17D00085A
:10003000D73B000800000000917E00087B79000893
:10004000B9860008B9860008B9860008B986000894
:10005000B9860008B9860008B9860008B986000884
:10006000B9860008B9860008B9860008D93B00089F
:10007000E93B0008B9860008B9860008B98600087F
:10008000B9860008B9860008B9860008B986000854
:10009000B9860008B9860008B9860008B986000844
:1000A000B9860008F93B0008B9860008B98600083F
:1000B000B9860008B9860008B9860008B986000824
:1000C000B9860008B9860008B9860008B986000814
:1000D000B9860008B9860008093C0008B9860008FE
:1000E000B9860008B9860008B9860008B9860008F4
:1000F000B9860008B9860008B9860008B9860008E4
:10010000B9860008B9860008B9860008B9860008D3
:10011000B9860008B9860008B9860008B9860008C3
:10012000B9860008B9860008B9860008B9860008B3
:10013000B9860008B9860008B9860008B9860008A3
:10014000B9860008B9860008B9860008B986000893
:10015000B9860008B9860008B9860008B986000883
:10016000B9860008B9860008B9860008B986000873
:10017000B9860008B9860008B9860008B986000863
:10018000B9860008B9860008B9860008B986000853
:10019000B986000800000000B9860008B98600088A
:1001A000B9860008B9860008B9860008B986000833
:1001B000B9860008B9860008B9860008B986000823
:1001C000B9860008B9860008B9860008B986000813
:0801D000B9860008B986000899
:100200000348044B834202D0034B03B118477047A5
:100210001001002010010020000000000548064BDE
:100220001B1AD90F01EBA301491002D0034B03B1F4
:100230001847704710010020100100200000000046
:1002400010B5064C237843B9FFF7DAFF044B13B11E
:100250000448AFF300800123237010BD100100207B
:10026000000000005010010808B5044B1BB1044900
:100270000448AFF30080BDE80840CFE7000000006D
:100280001401002050100108844641EA000313F0D5
:1002900003036DD1403A41D351F8043B40F8043B8D
:1002A00051F8043B40F8043B51F8043B40F8043B50
:1002B00051F8043B40F8043B51F8043B40F8043B40
:1002C00051F8043B40F8043B51F8043B40F8043B30
:1002D00051F8043B40F8043B51F8043B40F8043B20
:1002E00051F8043B40F8043B51F8043B40F8043B10
:1002F00051F8043B40F8043B51F8043B40F8043B00
:1003000051F8043B40F8043B51F8043B40F8043BEF
:1003100051F8043B40F8043B403ABDD2303211D38F
:1003200051F8043B40F8043B51F8043B40F8043BCF
:1003300051F8043B40F8043B51F8043B40F8043BBF
:10034000103AEDD20C3205D351F8043B40F8043B8F
:10035000043AF9D2043208D0D2071CBF11F8013B8D
:1003600000F8013B01D30B8803806046704700BF53
:10037000082A13D38B078DD010F003038AD0C3F162
:100380000403D21ADB071CBF11F8013B00F8013B44
:1003900080D331F8023B20F8023B7BE7043AD9D303
:1003A000013A11F8013B00F8013BF9D20B780370D8
:1003B0004B7843708B78837060467047830730B505
:1003C00046D08418844604E003F8011B9D0704D03E
:1003D0009C46A4456346F7D130BD013A0244A2EBE6
:1003E0000C02032A29D9CCB204EB04240F2A04EB13
:1003F00004442FD9A2F1100C2CF00F0C03F11005BE
:10040000AC44C3E90044C3E9024410336345F8D166
:1004100012F00C0F02F00F0E18D02EF0030C9C44BB
:10042000AEF104051A4642F8044B6245FBD125F0B3
:10043000030404330EF003022344002ACCD0C9B2D3
:100440001A4403F8011B9342FBD130BD7246F4E716
:100450000346C6E79646E0E70EB400B582B003ABAC
:10046000816853F8042B019300F060F802B05DF846
:1004700004EB03B0704700BF0FB400B5074983B069
:1004800004AB086853F8042B8168019300F04EF820
:1004900003B05DF804EB04B0704700BF000000201B
:1004A0009368013B002B936011DA10B49469A34266
:1004B00009DB0A2907D01368581C10601970084618
:1004C0005DF8044B70475DF8044B00F01FBE1368E5
:1004D000581C106019700846704700BF9BB1F8B5F2
:1004E000134406460F46541E5D1E01E0AC4208D080
:1004F00014F8011F3A463046FFF7D2FF431CF5D1EE
:10050000F8BD0020F8BD0020704700BF936810B50B
:1005100014461BB918460023636010BD01F054F85F
:100520000023A3600023636010BD00BF2DE9F04FDE
:100530009FB00F4692461C46039018B1036A002BE9
:1005400000F00881BB891D0740F18B803B69002BBF
:1005500000F0878000230B9343F22003ADF8313085
:100560009AF800307D4D05940126002B72D0D146BB
:1005700003E019F8013F002B7DD0252BF9D1B9EB11
:100580000A0B7BD199F80030002B63D000234FF089
:10059000FF32CDE9072309F10109069309938DF88C
:1005A0005B301C9304E006FA03F313430693A14661
:1005B0004C46052214F8011B284600F071F9A246AA
:1005C000069A431B0028EED1D00644BF20238DF8A5
:1005D0005B30110799F8001044BF2B238DF85B3076
:1005E0002A2961D1059B1968043300290593C0F2BB
:1005F0008D80099199F801102E296BD0584803225B
:1006000000F04EF940B1564A069B801A40228240C3
:1006100013430AF1010A06931AF8011B51488DF899
:100620003010062200F03CF9002875D04E48002812
:1006300065D005AA00924D4B03983A4606A9AFF340
:100640000080421C06D00B9B03440B939AF80030A9
:10065000002B8CD1BB895B060AD40B981FB0BDE878
:10066000F08F0398394600F097F800283FF472AFF6
:100670004FF0FF30F2E7B9EB0A0BEBD00AF1FF388D
:100680004446039818F8011F3A46FFF709FF023461
:100690000130A4EB0A04DDD0A345F1D80B9A99F8F8
:1006A00000305A440B926FE7A1F13002092A88BF4B
:1006B000CA46A1D8099B00E00134217803EB8303EB
:1006C00002EB4303A1F13002092AF5D92E2909933F
:1006D000A24693D19AF801102A2926D1059B9AF8AF
:1006E00002101A6807920433002A0AF102000593E7
:1006F000B8BF4FF0FF338246B8BF07937EE7059B34
:10070000073323F00703083305939CE7494242F07F
:100710000202099106926DE705AA0092134B039815
:100720003A4606A900F0C6F98BE7A1F13002002392
:10073000092A07930AF1010A3FF660AF1AF8011F70
:1007400003EB830302EB4303A1F13002092AF5D93D
:10075000079353E700F0DEFBF4E600BF0012010848
:10076000081201080C12010800000000DD04000856
:1007700010B4054C8446134620685DF8044B0A46C5
:100780006146FFF7D3BE00BF00000020014B186890
:10079000704700BF0000002038B53D4B1B68054680
:1007A0000C4613B11A6A002A5AD0B4F90C30190752
:1007B0000BD522699AB113F0010221D19B075ABFD0
:1007C0006369A360A260002038BDDA0658D55807D7
:1007D0001CD4226943F00803A381002AEBD19905B8
:1007E00028D5180603F0800124D4D80741D49D07EA
:1007F0003CD5A2600029E6D043F04003A38144E049
:10080000636900225B42A260A361DCE7616B51B1C6
:1008100004F14402914204D0284600F077FEB4F976
:100820000C300022626322690021C4E9002123F018
:100830002403CFE72146284600F024FDB4F90C300C
:10084000226913F001010FD0616900204942A060C4
:10085000A161002AB7D103F080010029B3D0CBE712
:10086000184600F057FBA0E7980700D46169A16023
:10087000EFE76069A2604042A0610029A3D0BBE716
:10088000092243F040032A60A3814FF0FF3038BDB6
:100890000000002000000000000000000000000038
:1008A00001F0FF01102A2BDB10F0070F08D010F821
:1008B000013B013A8B422DD010F0070F42B3F6D125
:1008C000F0B441EA012141EA014122F007047FF03E
:1008D00000070023F0E80256083C85EA010586EA95
:1008E000010685FA47F5A3FA87F586FA47F6A5FAD1
:1008F00087F68EB9EED1F0BC01F0FF0102F00702DD
:1009000032B110F8013B013A83EA010313B1F8D187
:100910000020704701387047002D06BF3546033868
:10092000073815F0010F07D1013015F4807F02BFA1
:10093000013015F4C03F0130F0BC0138704700BFF2
:1009400070B50F4B0F4DAB42A3EB050607D0B610A9
:10095000002455F8043B01349847A642F9D810F01A
:1009600077FB094D094B5E1BAB424FEAA60606D04A
:10097000002455F8043B01349847A642F9D870BDCD
:10098000801B0108801B0108801B0108881B0108CF
:100990002DE9F84F92461F460A698B68DDF82890CA
:1009A0009A42B8BF1A46CAF8002091F843300C4664
:1009B000064613B10132CAF80020226891065CD5C0
:1009C000DAF800300233CAF80030226812F0060F5D
:1009D00011461DD1E1689942D8BF114618DD4FF08C
:1009E000000804F1190B05E0E568DAF80030ED1AAB
:1009F00045450CDD01235A4639463046C84701308B
:100A000008F10108F0D14FF0FF30BDE8F88F216800
:100A100094F84330003B18BF01238A060AD5E11839
:100A20001A46302081F84300224494F8451082F899
:100A30004410023304F1430239463046C8470130BE
:100A4000E1D02368A268216903F00603042B1BD0C0
:100A50008A4224DD4FF00008521A90441A340025CF
:100A600001E045451BDA0123224639463046C84796
:100A7000013005F10105F4D1C5E712F0060F11D0E0
:100A8000003B18BF0123D5E7DAF80000E3688A428B
:100A9000A3EB000323EAE378DEDC002BDEDC00209E
:100AA000BDE8F88FE168DAF800309942D8BF114606
:100AB00095DCADE72DE9F047174684B00A7E0C9D22
:100AC0000C460646984601F1430C002A35D0A2F1A7
:100AD0005803D9B2202969D8202B67D8DFE813F052
:100AE000E500660066006600660066006600660057
:100AF000660066006600AB00700066006600660077
:100B000066007000660066006600660021008200D4
:100B1000C50066006600B5006600820066006600DB
:100B2000EB002B6822686169181D286010061B689D
:100B300002D4520600F1DF8019600023E1462361F0
:100B4000CDF800803B4603AA21463046FFF720FF40
:100B5000013020D023694A4639463046C04701302B
:100B600019D02368E068DDF80C909B0718D548453C
:100B700016DD002504F1190A04E0E068A0EB090382
:100B8000AB420DDD0123524639463046C0470130A5
:100B900005F10105F1D14FF0FF3004B0BDE8F08759
:100BA0004845B8BF484604B0BDE8F08784F8422005
:100BB000012004F142090023206184F84330BFE79B
:100BC0002A682368111D1806296002D4590600F10D
:100BD000948012681146002AC0F2938056484FF064
:100BE0000A0E13E020682B6810F0800F53F8041BE6
:100BF00002D1400648BF89B26F2A4F482B6000F0EF
:100C00008F804FF00A0E002384F843306268A260A0
:100C1000002A52DB236823F00403236000294CD10F
:100C2000002A40F08280E146BEF1080F56D0ACEBBE
:100C30000903236184E72B681A6804332B6004F1ED
:100C4000420984F842200120B5E72B686268191D2B
:100C50002960D3F8009000214846FFF721FE0028C4
:100C600061D0A0EB09006060A5E7236843F0200392
:100C700023607822314884F845202A6813F0800FD9
:100C800052F8041B03D113F0400F18BF89B22A6039
:100C9000DA0744BF43F02003236019B9236823F027
:100CA000200323604FF0100EADE7582384F8453041
:100CB00021482368E1E72368DBE77546E146B1FB9D
:100CC000F5F305FB131A0A46AA4210F80A1009F8B0
:100CD000011D1946F3D2BEF1080FA8D12368DD0724
:100CE000A5D5626823699A42A1DC302309F8013C4A
:100CF00009F1FF399BE719801FE7B2F900100A4696
:100D000069E76268A2602D20002A84F8430002DBB4
:100D100023F0040323600A2507484942AE46CDE785
:100D20004FF0080E6FE7606845E7037884F84230BB
:100D300004F1420978E700BF1412010828120108E3
:100D400000207047024A0349034800F02FBA00BF51
:100D50005000002089100008040000200C4B41685E
:100D6000994210B5044601D000F08EF9A168094BF4
:100D7000994202D0204600F087F9E168064B99427B
:100D800004D02046BDE8104000F07EB910BD00BF81
:100D90002C01002094010020FC010020002070475D
:100DA0002DE9F8432A4C2B49DFF8BC90DFF8BC80D2
:100DB000294FC4F83811002504230822294604F1DC
:100DC0005C00264EE360C4E90055C4E90455A56003
:100DD0006566A561FFF7F2FA214B63670822294691
:100DE00004F1C400C4E90849C4E90A87C4E91A55F2
:100DF000C4E91E552567C4F8CC50C4F8805026635A
:100E0000FFF7DCFA174BC4F8DC30294604F168031D
:100E1000082204F59670C4F88830C4E92398C4E920
:100E20002576C4E93455C4E93855C4F8D850C4F817
:100E30003451C4F8E850FFF7C1FA04F1D003C4E913
:100E40003D98C4E93F76C4F8F030BDE8F88300BFB0
:100E50002C010020450D0008591200087D120008E1
:100E60000900010012000200F11100081912000827
:100E7000F8B5254BD3F838310646002B3CD0234F2C
:100E8000D7E90134013B04D51DE05A1C04F1680484
:100E900019D0B4F90C50013B002DF6D11C4BE36086
:100EA000C4E90155C4E9045565662560A5610822B9
:100EB000294604F15C00FFF781FAC4E90D55C4E945
:100EC00012552046F8BD3D680DB12F46D8E74FF4C6
:100ED000D671304600F084FA044680B10423C0E99C
:100EE00000530C302946A0604FF4D0722546FFF71E
:100EF00065FA3C602F46C3E7FFF752FFBFE70C23BC
:100F000038603360DDE700BF2C0100205000002076
:100F10000100FFFF036A03B17047044B044AD3F892
:100F200038310262002BF7D13AE700BF2C010020D4
:100F30005D0D0008704700BF704700BF024A0349BB
:100F4000002000F033B900BF50000020410D000820
:100F5000024A0349002000F029B900BF50000020D8
:100F60009D0D0008B1F90C302DE9F0411D070C462C
:100F700080463FD44A68002A58DDE56A002D36D005
:100F80000022D8F80060C8F8002013F480525AD12B
:100F9000216A01234046A8470246501C66D0B4F996
:100FA0000C30E56A590705D56368D21A636B0BB13B
:100FB000236CD21A0023216A4046A847421CB4F988
:100FC0000C3042D022692260DF044FF000026260E0
:100FD00000D56065616BC8F8006041B104F144035D
:100FE000994202D0404600F091FA0023636300204A
:100FF000BDE8F0810E69002EF9D09B070D6808BF8F
:101000004B690E6018BF0023AD1B8B600BE02B46B5
:101010003246216AA76A4046B847B0F1000CA5EBFA
:101020000C05664406DD002DF1DCE0E70A6C002AC1
:10103000A3DCDCE7B4F90C3043F04003A3814FF0AC
:10104000FF30BDE8F081626DACE7D8F800101D29D3
:10105000F2D80C4ACA40D507EED522692260002298
:101060006260DA04B6D50029B3D0B3E7D8F800300F
:10107000002B94D01D2B01D0162BDBD1C8F80060BB
:10108000B5E700BF010040200B69B3B110B50446BD
:1010900082B008B1036A5BB1B1F90C3013B900201A
:1010A00002B010BD204602B0BDE81040FFF75ABFA5
:1010B0000191FFF72FFF0199EEE70020704700BF75
:1010C000B8B138B5036904463BB10C4B1D680DB18E
:1010D0002B6A53B1B4F90C300BB9002038BD21464E
:1010E0002846BDE83840FFF73DBF2846FFF712FF0E
:1010F000F0E7034A0349044800F058B80000002014
:10110000500000208910000804000020F8B50D46AA
:101110001446064610B1036A002B37D0A389A26992
:10112000A2601A0719D52369BBB122686169D31A75
:10113000EDB299422F4620DD0133A1680139A1604B
:10114000511C2160157062699A420DD0A389DB079A
:1011500001D50A2D08D03846F8BD21463046FFF7A4
:101160001BFB38B92369E0E721463046FFF78CFFC7
:101170000028F0D04FF0FF37EDE721463046FFF76B
:1011800083FF0028F6D122680123D6E7FFF7C2FECD
:10119000C4E700BF10B4044C03460A4620685DF85B
:1011A000044B1946FFF7B2BF000000202DE9F843B9
:1011B0000746884616464FF00009D6E90154013D1E
:1011C00010D4A389012B08D9B4F90E30013321467C
:1011D000384602D0C04749EA0009013D6B1C04F1C2
:1011E0006804EED13668002EE7D14846BDE8F883A2
:1011F00010B50C46B1F90E1000F072F9002803DBAF
:10120000636D0344636510BDA38923F48053A381F8
:1012100010BD00BF002070472DE9F0410C46B1F928
:101220000C101F46CB05054616460BD421F4805101
:10123000A1813B46B4F90E1032462846BDE8F04184
:1012400000F092BBB4F90E100223002200F040FB24
:10125000B4F90C10EAE700BF10B50C46B1F90E1056
:1012600000F036FBB4F90C30421C0EBF23F480535F
:1012700043F480536065A38110BD00BFB1F90E1027
:1012800000F014BB70B5B1F90C300C46990796B05C
:1012900007D504F147030122C4E90432236016B0E4
:1012A00070BDB4F90E100029054629DB6A4600F02E
:1012B00035FC002822DB4FF480612846019E00F0B7
:1012C0008FF888B3A389206043F0800306F470464A
:1012D000A381B6F5005F4FF48063C4E90403DED157
:1012E000B4F90E10284600F055FB0028D7D0A3898A
:1012F00023F0030343F00103A381D0E7B4F90C30DA
:1013000013F0800F14BF40264FF480663146284604
:1013100000F066F840B1A389206043F08003C4E97F
:101320000406A38116B070BDB4F90C309A05B6D48A
:1013300023F0030304F1470243F002030121C4E94F
:101340000421A3812260AAE770B50C46B1F90E1002
:10135000002996B015461E4613DB6A4600F0DEFBF8
:1013600000280EDB019901F47041A1F50051B1FA9A
:1013700081F14FF480634909002031602B6016B081
:1013800070BDA18911F0800102D000214023F3E754
:101390004FF48063F0E700BF70B5104E3368054628
:1013A0000C46B3B12146284600F0A6FB431C0CD0E6
:1013B000C41C24F00304A04205D0211A284600F0E2
:1013C0009BFB013001D0204670BD4FF0FF3420461A
:1013D00070BD194600F090FB3060E3E76802002022
:1013E0002DE9F843CD1C25F0030508350C2D38BF39
:1013F0000C25002D064618DBA94216D8DFF8DC8044
:1014000000F0AEFAD8F80420A2B1144603E06368F5
:1014100022467BB11C4623685B1BF8D40B2B1FD8DC
:10142000A242636854D053600CE00C233360002068
:10143000BDE8F88329463046FFF7AEFF431C04465B
:1014400019D00560304600F08DFA04F10B00231D21
:1014500020F00700C21A1CBF1B1AA350BDE8F88376
:101460006119A242256014BF5160C8F8041063518D
:1014700063684B60E6E7D8F804701FB33C467F68AA
:10148000002FFBD123683946304604EB030900F0F6
:1014900033FB814516D12368ED1A29463046FFF704
:1014A0007BFF01300ED02368D8F804202B44236042
:1014B000536883B1A34203D01A465B689C42FBD1B8
:1014C0000023B0E70C233360304600F04BFAAEE760
:1014D000C8F80430B6E7C8F80470B3E76802002023
:1014E00038B50D46084C8446114628461A46002356
:1014F0002360654606F016FE431C00D038BD236805
:10150000002BFBD02B6038BD70020020002950D08A
:1015100038B551F8043C0C1F002BB8BFE418054641
:1015200000F01EFA274A13682BB1A3420CD9216898
:10153000601883422CD0636028461460BDE83840B0
:1015400000F010BAA3420FD81A465B68002BF9D1FD
:1015500011685018844217D02CD363605460284619
:10156000BDE8384000F0FEB911685018A04214D010
:1015700020D8216860188342EFD118685B6808445E
:10158000C4E900035460EAE723680B441360E6E70C
:1015900018685B6808442060CDE720680144501853
:1015A00083421160DBD1D3E900040144C2E9001495
:1015B000D5E770470C232B602846BDE8384000F083
:1015C000D1B900BF6C0200209368002B00F0B680F8
:1015D0002DE9F04FB1F90CC01CF0080F83B017468D
:1015E00080460C4627D00B692BB31CF002033D68E4
:1015F0002DD04FF0000ADFF8B0B25646B9465E452E
:101600003346524628BF5B464046002E00F0858098
:10161000216AA76AB847002840F38880D9F80830C3
:101620001B1A8244361AC9F80830002BE7D1002073
:1016300003B0BDE8F08F21464046FFF7ADF8002823
:1016400079D1B4F90CC03D681CF00203D1D11CF073
:10165000010975D14E460097002E5AD01CF4007F28
:101660002068D4F808B000F0B180B3455A4600F2C3
:10167000DF801CF4906F32D023696269A0EB030A0B
:1016800002EB420202EBD2720AF101015210314424
:10169000914292BF93468B460A461CF4806F00F03D
:1016A000E58011464046FFF79BFE002800F0F580DC
:1016B000524621690190FEF7E7FDA289019B22F4C1
:1016C000906242F08002A28103EB0A002361ABEB3F
:1016D0000A03C4F814B0A3602060B34632464946FA
:1016E000019200F071F9A368019AA3EB0B01236842
:1016F000A1601344B24623600026009A9368A3EBCE
:101700000A03D1449360002B91D0B4F90CC0002E91
:10171000A4D1D5E9009608359EE7D5E900A608359D
:101720006DE721464046FFF7AFFC70B3B4F90C30CB
:1017300043F04003A3814FF0FF3079E7002070476A
:101740001E46BA469946184600951F465EB30028C5
:1017500031D04A46D4E904132068B24228BF324649
:10176000884204D9A16803EB010B5A4570DC93420F
:1017700061DC216AA56A3A464046A847B0F1000BF1
:10178000D4DDB9EB0B09CCD00120DAF80830A3EB9B
:101790000B035F44A6EB0B06CAF80830002B3FF49E
:1017A00046AF002ED3D1009A5668134608320092F5
:1017B000002EF8D01F6832460A213846FFF770F82D
:1017C000002867D00130A0EB0709C2E723698342F4
:1017D00016D36269B24213D86FF00043B34228BFF8
:1017E0003346216A93FBF2F3A76A02FB03F34046F8
:1017F0004A46B847B0F1000A98DDA6EB0A067CE736
:10180000B345DA4628BFB2465246494600F0DCF8F6
:10181000A3682268A3EB0A035244A3602260002B52
:10182000EBD121464046FFF72FFC0028E5D07DE7AD
:10183000B346324653E73946019200F0C5F8019AA3
:10184000A3689B1AA360236813442360934698E718
:1018500039465A4600F0B8F823685B4423602146B5
:101860004046FFF711FC00288BD05FE71946404641
:1018700000F044F8034600287FF426AF2169404673
:10188000FFF744FEB4F90C300C22C8F8002023F016
:1018900080034DE7721C91465CE70C22B4F90C30D2
:1018A000C8F8002044E700BF00FCFF7F38B5074DB3
:1018B0000022044608462A6006F052FC431C00D071
:1018C00038BD2B68002BFBD0236038BD7002002090
:1018D00038B50D46084C8446114628461A46002362
:1018E0002360654606F046FC431C00D038BD2368E3
:1018F000002BFBD02B6038BD700200202DE9F04199
:10190000144641B30AB306460D4600F055F884422A
:10191000074602D8B4EB500F13D821463046FFF7E4
:101920005FFD804650B1BC422246294628BF3A4658
:10193000FEF7AAFC29463046FFF7E8FD4046BDE821
:10194000F081A8464046BDE8F081A046FFF7DEFDE5
:101950004046BDE8F081BDE8F0411146FFF740BDCB
:10196000704700BF704700BF38B50D46084C84462D
:10197000114628461A4600232360654606F0E2FB1E
:10198000431C00D038BD2368002BFBD02B6038BD32
:101990007002002038B5074D0022044608462A6030
:1019A00006F0E6FB431C00D038BD2B68002BFBD0B3
:1019B000236038BD7002002051F8043C181F002B32
:1019C000BCBF0B58C01870478842F0B514D98B18AB
:1019D000834211D9032A00EB020166D802F1FF3CD1
:1019E0004AB16FEA0C0C0A469C4413F8011D02F838
:1019F000011D6345F9D1F0BD032A0FD8034602F15A
:101A0000FF3C002AF7D00CF1010C013B8C4411F88B
:101A1000012B03F8012F6145F9D1F0BD41EA000324
:101A20009B073ED10F2A64D9A2F1100301F11004E3
:101A300023F00F032031A446194400F1100E5CF886
:101A4000105C4EF8105C5CF80C5C4EF80C5C5CF8BA
:101A5000085C4EF8085C5CF8045C4EF8045C0CF121
:101A6000100C8C450EF1100EE9D1E11812F00C0F9C
:101A7000034402F00F0E03F1100338D02EF00305DB
:101A8000043D1A1F5E198C465CF8044B42F8044F63
:101A9000B242F9D10431043329442B440EF003023D
:101AA000ADE702F1FF3C0346ADE741EA0304A407BA
:101AB0001F4602D002F1FF3C93E7A2F1040E2EF084
:101AC00003068E1B4FEA9E0E8C46644653F8045D57
:101AD0004CF8045DB442F8D1CEEB8E7301EB830178
:101AE00007EB83073B1F043902F0030276E77246D7
:101AF00085E703469646C1E738B5074D0022044600
:101B000008462A6006F0DAFA431C00D038BD2B687C
:101B1000002BFBD0236038BD7002002070B50C464E
:101B2000084D03460026204611461C462E6006F04E
:101B30001AFB431C00D070BD2B68002BFBD0236028
:101B400070BD00BF700200207BB972B90029BEBF12
:101B500000204FF0004106E008BF00281CBF6FF0D6
:101B600000414FF0FF3000F0D3B9ADF1080C6DE942
:101B700004CE002909DB002B1ADB00F04DF8DDF85C
:101B800004E0DDE9022304B07047404261EB41010B
:101B9000002B1BDB00F040F8DDF804E0DDE9022358
:101BA00004B0404261EB4101524263EB4303704792
:101BB000524263EB430300F02FF8DDF804E0DDE967
:101BC000022304B0404261EB41017047524263EB93
:101BD000430300F021F8DDF804E0DDE9022304B05E
:101BE000524263EB4303704753B94AB9002908BF17
:101BF00000281CBF4FF0FF314FF0FF3000F088B9D4
:101C0000ADF1080C6DE904CE00F006F8DDF804E053
:101C1000DDE9022304B070472DE9F047089D0F4627
:101C200004468C46002B48D18A42164661D9B2FA46
:101C300082F34BB1C3F1200201FA03FC20FA02F255
:101C40009E4042EA0C0C9C404FEA164EB7B2BCFBD9
:101C5000FEF1220C0EFB11CC42EA0C4201FB07F014
:101C6000904209D9B21801F1FF3C80F0EE80904219
:101C700040F2EB8002393244121AA4B2B2FBFEF0F9
:101C80000EFB102244EA024400FB07F7A74209D9E1
:101C9000341900F1FF3280F0DA80A74240F2D78099
:101CA0003444023840EA0140E41B00211DB1DC400D
:101CB0000023C5E90043BDE8F0878B4206D90DB18A
:101CC000C5E9000100210846BDE8F087B3FA83F1B9
:101CD000002948D1BB4202D3824200F20781841A14
:101CE00067EB030201209446002DE4D0C5E9004CC7
:101CF000E1E7002A00F09280B2FA82F3002B40F074
:101D0000A8808A1A4FEA164E1FFA86FC0121200C81
:101D1000B2FBFEF70EFB172240EA02420CFB07F073
:101D2000904207D9B21807F1FF3802D2904200F270
:101D3000E2804746121AA4B2B2FBFEF00EFB10225C
:101D400044EA02440CFB00FCA44507D9341900F115
:101D5000FF3202D2A44500F2CB801046A4EB0C0463
:101D600040EA0740A2E7C1F120068B4022FA06FCB8
:101D70004CEA030C07FA01F420FA06F3F7404FEAA5
:101D80001C49234300FA01F81FFA8CFEB7FBF9F057
:101D90001C0C09FB107744EA074400FB0EF7A7422E
:101DA00002FA01F20AD91CEB040400F1FF3A80F0B8
:101DB0009B80A74240F2988002386444E41B9FB2A3
:101DC000B4FBF9F309FB134447EA044403FB0EFE9A
:101DD000A64509D91CEB040403F1FF3780F082808B
:101DE000A6457FD9023B644443EA0040A4EB0E04BD
:101DF000A0FB02E7BC427346B94663D360D05DB135
:101E0000B8EB030264EB090404FA06F622FA01F3C4
:101E10001E43CC40C5E9006400214CE76208480835
:101E200042EAC1710B0C43EA00438AB242EA034220
:101E3000B3FBF6F1E407B4463746B6461F23B0FBC2
:101E4000F6F0D21B41EA004161E7614614E7104613
:101E500028E7C3F1200120FA01F29E4027FA01F1A0
:101E60009F403A434FEA164E1FFA86FCB1FBFEF73D
:101E70000EFB1710110C41EA004107FB0CF88845D6
:101E800004FA03F43AD9711807F1FF3001D28845FA
:101E90001FD8A1EB0801B1FBFEF808FB0CF70EFB05
:101EA000181192B242EA0142BA422FD2B21808F196
:101EB000FF31C6D2BA42C4D2A8F102013244C0E70F
:101EC000F0459CD2BEEB020367EB0C070138B94624
:101ED00095E7A6EB08084144B81EB1FBFEF808FBE5
:101EE0000CF7DCE73B467FE7504667E70846FBE632
:101EF0003444023832E7023F32441BE7A1EB0801C9
:101F00003846B1FBFEF808FB0CF7C8E7414698E7F6
:101F1000704700BF08B410B5002A9DB0044636DBF8
:101F20004FF40273ADF814304FF000031B9302918D
:101F3000069120AB17D0013A4FF6FF710492079239
:101F4000ADF816101F9A019302A900F0A5FD421CDE
:101F500001DA8B232360029B00221A701DB0BDE8BA
:101F6000104001B070474FF6FF7104920792ADF830
:101F700016101F9A019302A900F08EFD431C01DA8E
:101F80008B2323601DB0BDE8104001B070478B2348
:101F900003604FF0FF30F5E70CB410B5214B00297A
:101FA0001C689CB038DB4FF000034FF402721B93A7
:101FB000ADF81420029006901FAB18D001394FF6EF
:101FC000FF7204910791ADF8162002A91E9A0193A1
:101FD000204600F061FD421C01DA8B232360029B46
:101FE00000221A701CB0BDE8104002B070474FF6D6
:101FF000FF7204910791ADF8162002A91E9A019371
:10200000204600F049FD431C01DA8B2323601CB0FD
:10201000BDE8104002B070478B2323604FF0FF30C3
:10202000F5E700BF0000002038B5124B1D682A6B91
:1020300004461AB10023C2E9044338BD182001F058
:102040004FF80246286378B101200021C2E904015B
:10205000094B0A480A499160C2E900030B239381A6
:102060000023C2E9044338BD064B0748462100F06F
:1020700073F800BF0000002034126DE60E33CDABC4
:10208000ECDE050040170108581701081C4B10B57D
:102090001C68226B8AB113691A4954691A4803FBF8
:1020A00001F100FB0411A3FB0030013341EB0001FF
:1020B000C2E9043121F0004010BD182001F010F8F1
:1020C0000246206388B1114C114B0E4811499160B2
:1020D0009FED097BC2E900430B2393810E4B014620
:1020E00082ED047BC2E9043110BD0C4B0C48522137
:1020F00000F032F8AFF300800100000000000000A3
:10210000000000202DF451582D7F954C0E33CDAB9F
:1021100034126DE6ECDE05002E7F954C4017010869
:102120005817010810B4044C03460A4620685DF8AD
:10213000044B194601F002B90000002000B5054B20
:1021400083B0014601AA186801F0F8F803B05DF801
:1021500004FB00BF0000002000B50B4C25681446AE
:10216000EE681A4685B003460D464CB10749009506
:10217000CDE901143046064901F094F900F0ACFDB8
:1021800004490C46F3E700BF000000208417010853
:10219000941701089017010808B513460022FFF7AD
:1021A000DBFF00BF01292DE9F0415BD94FF00108A9
:1021B000C64600244FF0FF35434608E0A3EB050870
:1021C0001C464FF0010E04EB0E03994210D900EBB0
:1021D000050CC75C1CF80E60B742EFD332D04FF04D
:1021E00001082546C646444404EB0E039942EED846
:1021F0000127C2F80080BE4600244FF0FF363B4660
:1022000007E09F1B1C464FF0010E04EB0E039942A2
:1022100010D900EB060C10F803801CF80EC0E04546
:10222000EFD817D001272646BE463C4404EB0E03E8
:102230009942EED80136681C864201D317603046B9
:10224000BDE8F081C6450ABF74440EF1010E4FF09F
:10225000010EB8E7BE450ABF74440EF1010E4FF0FF
:10226000010ED2E701270026E8E700BF2DE9F04F75
:10227000174687B005AA80468946384619461C4647
:10228000FFF790FF059B029382460246F9183846F5
:1022900001F04EFA00285FD144F400630193029BE1
:1022A000E31A06460546A9EB04010393CAF1010BA4
:1022B000A9421BD35645334638BF53469C4223D9C7
:1022C000581EEA183844424402E001339C421BD0B5
:1022D00012F801CB10F801EFE645F6D09C4213D975
:1022E0005D441D44A9424FF00006E3D2019908EB7A
:1022F000090001F04BFA8144A9EB0401A942D9D2AB
:10230000002007B0BDE8F08F56450AF1FF337AD2BE
:1023100005EB0A02424407EB0A00009502E09E42E8
:1023200011D0734610F801CD12F8015DAC4503F1F0
:10233000FF3EF4D0009D013301369E4207D8029B38
:10234000039E1D44B4E701369E42009DF7D908EB79
:10235000050007B0BDE8F08FA4EB0A03534538BF72
:10236000534603F1010B07EB0A03CDF814B0002527
:102370000193CAF10106544541D90AF1FF3CA9EB8A
:10238000040E05EB0A02424407EB0C015346CDF85C
:1023900000C002E001339C4231D012F8010B11F869
:1023A00001CF8445F6D09C42DDF800C027D93544E2
:1023B0001D44AE4517D35445E3D805EB0A01019AF5
:1023C000414401E0BB42C2D012F801CD11F8010D29
:1023D00084451346F6D05D44A9EB04039D4202D820
:1023E0005445CAD8E9E708EB090044F4006101F05C
:1023F000CDF98144A9EB0403AB42BCD280E7BAF12A
:10240000000FDAD1A3E7534696E700BF2DE9F04F5E
:10241000ADF21C4D934605AD2A4680468A46584685
:1024200019461C46FFF7BEFE2B4681460DF21442AC
:1024300043F8044F9342FBD16CB1601E58440BF13A
:10244000FF3212F8011FA31A013B06AE5B44824221
:1024500046F82130F5D12B6801934A460BEB030176
:10246000584601F065F9002878D144F40063074626
:102470000546AAEB040E0293661EAE4511D308EB87
:10248000050C06AA1CF8063052F82330C3B11FB160
:10249000019A9A4288BFA31A1D44AE454FF0000727
:1024A000EDD208EB0A00029901F070F98244AAEB20
:1024B000040EAE45E3D200200DF21C4DBDE8F08FB6
:1024C0004F453B4638BF4B469E4218D9591EEA1825
:1024D00059444244009502E001339E420ED012F866
:1024E000010B11F8015F8542F6D09E42009D06D98E
:1024F000C9F101022A44D5180027BEE7009D4F45C7
:1025000009F1FF3380F0818005EB090242440BEBB7
:1025100009010095CDF80C9002E09F4213D04B4684
:1025200011F8015D12F8010D854203F1FF39F4D075
:10253000009DDDF80C90013301379F4209D8019BC3
:102540001D44E71A99E701379F42009DDDF80C9082
:10255000F5D960460DF21C4DBDE8F08FA4EB0903E0
:102560004B4538BF4B4601332B60019344F4006365
:102570000025AAEB040E0093661EAE4509D308EBB6
:10258000050006AA835D52F823306BB11D44AE45A9
:10259000F5D208EB0A00009901F0F8F88244AAEBA2
:1025A000040EAE45EBD286E7B14517D209F1FF31F3
:1025B00005EB0902594442444B4602E00133B34261
:1025C0000CD012F8017B11F801CFBC45F6D09E4229
:1025D00004D9C9F101022A44D518CEE7B9F1000F98
:1025E0003FF46AAF05EB090141440BEB090202E03D
:1025F0005B453FF461AF12F801CD11F8017DBC4598
:102600001346F5D0019B1D44C1E74B4694E700BF3C
:102610002DE9F0410D46097890B0044600294AD0D2
:102620006A78002A6AD0AB78002B48D0E878002876
:1026300078D02B79002B66D0284600F061FD064645
:1026400040F40071204601F0A1F8864245D8FE2EE4
:1026500000F28180801B27184022711C6846FDF71C
:10266000ADFE6EB16A1E5FFA86FC901912F8013F4A
:1026700003F03F036B44A91A614490421970F5D1ED
:10268000013CA35D03F03F036B441B781C44A7424D
:1026900003D227E04444A74224D314F806C00CF028
:1026A0003F0CEC443246294620469CF8008001F05D
:1026B0003FF80028EED1204610B0BDE8F081007848
:1026C00042EA014238B140EA03439A4214F8010F4A
:1026D000F8D1023CEFE79A42FBD00024204610B02C
:1026E000BDE8F081BB5DB819002BF6D04FF4006156
:1026F00001F04CF80744A742C2D2EEE710B0BDE8A3
:10270000F04100F011BB2278002AE6D0296809BA0E
:1027100042EA0323204614F8012FB2B19942F7D1BF
:10272000C41EC8E7120442EA0162217842EA032388
:10273000024641EA020059B1B3EB002F14F8011F21
:102740004FEA0022F5D1033CB5E79942C5D1E7E74E
:102750009342C2D1F7E7014633462A46204610B0DD
:10276000BDE8F04152E600BF2DE9F0470746494871
:102770000E46354616F801EB10F80EC01CF0080C9A
:10278000F7D1BEF12D0F5AD0BEF12B0F03BF96F833
:1027900000E06446AE1C64464BB9BEF1300F5CD01D
:1027A0000A23DFF8F4804FF0050A99460AE0102B5F
:1027B0004AD04FF0FF38B8FBF3F803FB08FA6FEA92
:1027C0000A0A99460025284605E02CD009FB00C0DE
:1027D000012516F801EBAEF1300CBCF1090F06D95A
:1027E000AEF1410CBCF1190F0BD8AEF1370C6345BB
:1027F00010DDB5F1FF3FECD04045E6D94FF0FF3595
:10280000E7E7AEF1610CBCF1190F03D8AEF1570C3C
:102810006345EEDC6B1C0BD004B140420AB165B9D4
:102820001160BDE8F087D445D0DD4FF0FF35D0E72B
:1028300022233B602846002AF3D0711EF0E796F869
:1028400000E00124AE1CA7E7BEF1300F11D04FF01D
:102850000F0A6FF070489946B4E7337803F0DF034E
:10286000582B0BD008234FF0070A6FF060489946A9
:10287000A8E7307800F0DF005828E8D14FF01009C1
:1028800096F801E04FF00F0A02366FF070484B46A1
:1028900098E700BF751001089999991964E700BF7E
:1028A00010B4044C8446134620685DF8044B0A4675
:1028B000614659E70000002010B4044C84461346DA
:1028C00020685DF8044B0A4661464DE70000002091
:1028D0002DE9F0478F681D46AF420B680C4616463F
:1028E00036D8B1F90CC01CF4906F0ED13D46184695
:1028F00031462A46FFF768F8A368DF1B2368A76004
:102900002B4400202360BDE8F0874A69096902EB87
:1029100042025F1A02EBD2726B1C52103B4493428C
:1029200092BF914699461A461CF4806F804611D09A
:102930001146FEF755FD824600B321693A46FDF780
:10294000A3FCA38923F4906343F08003A38105E0F3
:102950002F46CCE7FEF7D2FF824658B10AEB0703B9
:10296000A9EB0707A760C4F810A0C4F8149023606F
:102970002F46BCE721694046FEF7C8FDA3890C221B
:1029800043F04003C8F800204FF0FF30A381BAE7BE
:102990002DE9F04F936883B09246002B75D04FF02D
:1029A000000B17688B680A6881460C465D4645E057
:1029B000B4F90C3013F4906F2CD0D4E90401161A3A
:1029C00001EB410202EBD272711C52102944914278
:1029D00092BF904688460A465B0539D5114648465F
:1029E000FEF7FEFC019000283DD032462169FDF73C
:1029F0004BFCA289019B22F4906242F08002A281EA
:102A00009819A8EB0606A660C4F81480236120601C
:102A1000A8462E4632465946FEF7D6FFDAF8081089
:102A2000A3682268A3EB08033244491BA360226019
:102A3000CAF8081049B3D7E900B5083798461046D8
:102A4000002DF8D09D421E46B2D2A8462E46E1E7A0
:102A500001464846FEF752FF03460028D0D12169BF
:102A60004846FEF753FDA3890C2243F04003C9F802
:102A700000204FF0FF30A38100220023CAF8082075
:102A8000CAF8043003B0BDE8F08F00200023CAF874
:102A9000043003B0BDE8F08F2DE9F0471C468B8968
:102AA0001D069CB00F468046924603D50B69002B4D
:102AB00000F0ED800023099343F22003ADF82930A4
:102AC0009AF80030794D03940126002B71D0D1463D
:102AD00003E019F8013F002B72D0252BF9D1B9EB97
:102AE0000A0470D199F80020002A62D000234FF028
:102AF000FF32CDE9052309F10109049307938DF80D
:102B000053301A9304E006FA03F313430493A146E7
:102B10004C46052214F8011B2846FDF7C1FEA246CB
:102B2000049A431B0028EED1D00644BF20238DF821
:102B30005330110799F8001044BF2B238DF8533000
:102B40002A294ED1039B19680433002903937ADBA9
:102B5000079199F801102E2959D055480322FDF705
:102B60009FFE40B1524A049B801A40228240134388
:102B70000AF1010A04931AF8011B4E488DF8281037
:102B80000622FDF78DFE002863D04B48002853D065
:102B900003AA0092494B3A4604A94046AFF300808D
:102BA000421C06D0099B034409939AF80030002B7D
:102BB0008DD1BB895B0676D409981CB0BDE8F0873F
:102BC000B9EB0A04F5D02346524639464046FFF792
:102BD0007FFE0130EDD0099B99F800202344099332
:102BE00082E7A1F13002092A88BFCA46B3D8079B01
:102BF00000E00134217803EB830302EB4303A1F1EE
:102C00003002092AF5D92E290793A246A5D19AF8B0
:102C100001102A2926D1039B9AF802101A680592FE
:102C20000433002A0AF102000393B8BF4FF0FF33C8
:102C30008246B8BF059390E7039B073323F0070351
:102C400008330393AEE7494242F00202079104922F
:102C50007FE703AA0092194B3A4604A94046FDF7C4
:102C600029FF9DE7A1F130020023092A05930AF10B
:102C7000010A3FF672AF1AF8011F03EB830302EB60
:102C80004303A1F13002092AF5D9059365E74021F4
:102C9000FEF7A6FB3860386110B140237B6109E77D
:102CA0000C23C8F800304FF0FF3086E7001201080F
:102CB000081201080C12010800000000D1280008C9
:102CC00010B4044C03460A4620685DF8044B1946CC
:102CD00000F00AB80000002008B5062000F08AFCC9
:102CE000012005F019FA00BF70B5A1FB025454B9D8
:102CF0002946FEF775FB064618B12A462146FDF720
:102D00005DFB304670BD0C2202600026F9E700BF73
:102D100010B4044C03460A4620685DF8044B19467B
:102D2000FEF7ECBD0000002011F0FF01034600F0AB
:102D3000030239D08ABB026810B501EB012E0EEBFD
:102D40000E4E8EEA0204A2F1013323EA0203A4F13B
:102D5000013222EA0402134313F0803F0FD150F8EE
:102D6000044F84EA0E0CA4F10133ACF1013223EAE2
:102D7000040322EA0C02134313F0803FEFD00378E0
:102D800023B936E010F8013F002B32D09942F9D137
:102D900010BD8A4228D09A0729D01A7818460133E4
:102DA000002AF6D110467047CAB90268A2F1013371
:102DB00023EA020313F0803F08D150F8042FA2F158
:102DC000013323EA020313F0803FF6D003785BB1AE
:102DD00010F8013F002BFBD17047990705D018462A
:102DE00013F8012B002AF8D170471846DDE7184682
:102DF000A1E7184610BD00BF000000000000000061
:102E000002780B78012A28BF9A4240F0D8806DE9F9
:102E1000044540EA0104CDE902676FF0000C4FEA77
:102E200044721AB380EA010414F0070F6BD100F06A
:102E3000070420F0070004F0030521F007014FEA22
:102E4000C505F0E8042314F0040FF1E804670CFA58
:102E500005F462EA040266EA04060BD063EA04039E
:102E6000624667EA0407664604E000BFF0E8042310
:102E7000F1E8046782FA4CF582EA0604A4FA8CF4BD
:102E80006CBB83FA4CF583EA0705A5FA8CF595B976
:102E900050E9022351E9026782FA4CF582EA0604FE
:102EA000A4FA8CF483FA4CF583EA0705A5FA8CF5AD
:102EB0002543DBD09CB92DBAB5FA85F424F007047C
:102EC00027FA04F1DDE9026723FA04F303F0FF00B7
:102ED00001F0FF01FDE80445A0EB0100704724BAB2
:102EE000B4FA84F424F0070426FA04F1DDE9026759
:102EF00022FA04F202F0FF0001F0FF01FDE80445B0
:102F0000A0EB0100704714F0030F3CD110F0030454
:102F100028D150F8082B51F8083B82FA4CF582EA88
:102F20000305A5FA8CF55DB950F8042C51F8043C62
:102F300082FA4CF582EA0305A5FA8CF5002DE8D05B
:102F40002DBAB5FA85F424F0070423FA04F122FA25
:102F500004F202F0FF0001F0FF01FDE80445A0EBE0
:102F6000010070474FEAC40420F0030050F8082B1A
:102F700021F0030151F8083B0CFA04F462EA040260
:102F800063EA0403C9E710F003041DD0A1EB0401B8
:102F900020F00300E40750F8042B06D012D28B78FF
:102FA0005FFAA2F4E41A06D12BB1CB785FFAB2F43F
:102FB000E41A00D133B920465DF8104B7047A2EBFC
:102FC0000300704701F1040150F8042BCC0721F0F5
:102FD000030151F8043B48D824D222F07F4482FAFE
:102FE0004CF594EA1325A5FA8CF50AD165B951F888
:102FF000043B84EA0204B4EB036F0ED150F8042BB7
:10300000EBE74FEA132355E035F07F454DD10878C3
:10301000FDE80445C0F1000070474FEA126203F07A
:10302000FF0347E002EA1C4482FA4CF594EA134598
:10303000A5FA8CF50AD165B951F8043B84EA02047B
:10304000B4EB034F0CD150F8042BEBE74FEA1343DA
:1030500030E015EA1C4528D10B884FEA124229E0DE
:103060004FEA124203EA1C4324E002F0FF0482FA12
:103070004CF594EA1365A5FA8CF50AD165B951F8B7
:10308000043B84EA0204B4EB032F09D150F8042B6B
:10309000EBE74FEA13630DE015F0FF0F05D10B6866
:1030A0004FEA122223F07F4304E04FF00000FDE8D6
:1030B0000445704712BA1BBA82FA4CF482EA030440
:1030C000A4FA8CF5B5FA85F402FA04F203FA04F3D3
:1030D0004FEA1260FDE80445A0EB1360704700BFA3
:1030E000024B01461868FEF77BB900BF00000020C4
:1030F000024B01461868FEF709BA00BF0000002025
:1031000030B490F800F020F007016FF0000C10F0E0
:10311000070491F820F040F048804FF000046FF071
:103120000700D1E9002391F840F000F1080082FA8D
:103130004CF2A4FA8CF283FA4CF3A2FA8CF34BBB58
:10314000D1E9022382FA4CF200F10800A4FA8CF2D1
:1031500083FA4CF3A2FA8CF3E3B9D1E9042382FA9F
:103160004CF200F10800A4FA8CF283FA4CF3A2FAB4
:103170008CF37BB9D1E9062301F1200182FA4CF2EC
:1031800000F10800A4FA8CF283FA4CF3A2FA8CF353
:10319000002BC6D0002A04BF04301A4612BAB2FA75
:1031A00082F200EBD20030BC7047D1E9002304F07A
:1031B0000305C4F100004FEAC50514F0040F91F8AF
:1031C00040F00CFA05F562EA05021CBF63EA05034C
:1031D00062464FF00004AAE78AB330B540EA010422
:1031E000A40786460B4617D1032A07D814E0043AF1
:1031F00023D01CF0803F20D1032A26D9DEF80040DE
:10320000194653F8045BA4F1013CAC4270462CEA29
:10321000040C0EF1040EEAD003780C78013AA342B4
:1032200008BF121807D00CE06BB110F8013F11F87D
:10323000014FA34205D19042F6D1002030BD104687
:103240007047181B30BD184630BD70461946E3E77D
:1032500010B51C4C002924689AB02DDB0090049016
:103260004FF40270ADF80C004FF00000199013D02D
:1032700001394FF6FF7002910591ADF80E006946D5
:103280002046FFF709FC421C01DA8B232360009BD8
:1032900000221A701AB010BD4FF6FF70029105910E
:1032A000ADF80E0069462046FFF7F6FB431C01DA35
:1032B0008B2323601AB010BD8B2323604FF0FF30A7
:1032C000F8E700BF0000002030B51446002C9BB08A
:1032D00005462EDB1A464FF40273ADF80C304FF062
:1032E000000300910491199313D04FF6FF73013C32
:1032F000ADF80E3069461E9B02940594FFF7CCFB97
:10330000421C01DA8B232B60009B00221A701BB039
:1033100030BD4FF6FF73ADF80E3069461E9B029428
:103320000594FFF7B9FB431C01DA8B232B601BB01C
:1033300030BD8B2303604FF0FF30F8E72DE9F047F5
:10334000DFF8749007460E46904600F0EDF9D9F884
:1033500000504DB133781C466BB1344602E014F88E
:10336000013F3BB13D2BFAD1384600F0DFF9002098
:10337000BDE8F087A41B28680028F5D02246314616
:10338000FFF72AFF28B92868035D3D2B00EB040AEC
:1033900004D055F8040F0028F0D1E5E7D9F8003043
:1033A000EB1A9B103846C8F8003000F0BFF90AF15C
:1033B0000100BDE8F08700BF6C00002000B583B0BD
:1033C00001AAFFF7BBFF03B05DF804FB80EA01022E
:1033D000844612F0030F4FD111F0030F32D14DF894
:1033E000044D11F0040F51F8043B0BD0A3F101324E
:1033F0009A4312F0803F04BF4CF8043B51F8043B61
:1034000016D100BF51F8044BA3F101329A4312F0D8
:10341000803FA4F101320BD14CF8043BA24312F0DF
:10342000803F04BF51F8043B4CF8044BEAD02346DC
:103430000CF8013B13F0FF0F4FEA3323F8D15DF88E
:10344000044B704711F0010F06D011F8012B0CF856
:10345000012B002A08BF704711F0020FBFD031F8CE
:10346000022B12F0FF0F16BF2CF8022B8CF8002055
:1034700012F47F4FB3D1704711F8012B0CF8012BD8
:10348000002AF9D1704700BF0CB400B583B004AB7B
:1034900053F8042B0193FDF749F803B05DF804EBF2
:1034A00002B070470EB410B583B005AB064C53F8AC
:1034B000042B019301462068FDF738F803B0BDE8FE
:1034C000104003B0704700BF0000002038B5C46B47
:1034D0000CB1002038BD80210546FDF781FF024672
:1034E000E86330B1031F7C3243F8044F9342FBD1B1
:1034F000EFE74FF0FF3038BD30B51F2983B00546E8
:1035000008D8C36B0C465BB153F8240043F8242061
:1035100003B030BD162303604FF0FF3003B030BD61
:1035200080210192FDF75CFF019AE86303460028C1
:10353000F2D0011F00F17C05002041F8040FA942E0
:10354000FBD1E1E71F2938B505461ED8C26B0C46F2
:103550006AB152F8213053B1012B06D0591C10D05A
:10356000002142F8241020469847002038BD284604
:1035700000F03AF9224601462846BDE8384000F0FE
:103580001DB916230360012038BD162303604FF0D8
:10359000FF3038BD1F2929D8C26B38B50C46054607
:1035A0009AB152F8243053B1591C0CD0012B08D0D9
:1035B0000025204642F824509847284638BD01206F
:1035C00038BD032038BD022038BD8021FDF708FF3B
:1035D0000246E86338B1031F00217C3043F8041F22
:1035E0008342FBD1DDE74FF0FF3038BD4FF0FF30B5
:1035F000704700BF38B5134B1F281D681DD8EA6BF4
:10360000044662B152F820304BB1012B05D0591C51
:103610000FD0002142F820109847002038BD2846DE
:1036200000F0E2F8224601462846BDE8384000F0A6
:10363000C5B816232B60012038BD16232B604FF030
:10364000FF3038BD00000020114B1F2870B51E68E8
:1036500008D8F36B04460D464BB153F8240043F8E9
:10366000245070BD162333604FF0FF3070BD8021B1
:103670003046FDF7B5FE0346F0630028F4D0021F84
:1036800000217C3042F8041F8242FBD1E5E700BFF5
:103690000000002038B50B4B1D68EC6B0CB100200E
:1036A00038BD80212846FDF79BFEE86338B1031F33
:1036B00000F17C0243F8044F9342FBD1EFE74FF057
:1036C000FF3038BD0000002038B5164B1F281D689C
:1036D00025D8EA6B04469AB152F8243053B1591CEC
:1036E0000CD0012B08D00025204642F824509847E2
:1036F000284638BD012038BD032038BD022038BD22
:1037000080212846FDF76CFE0246E86338B1031FAE
:1037100000217C3043F8041F8342FBD1DCE74FF0EB
:10372000FF3038BD00000020704700BF704700BF69
:10373000032A30B412D941EA0004A40784460B4698
:1037400021D11946604653F8044B5CF8045BA5424E
:1037500019D1043A032AF4D860461946541E7AB1A6
:10376000431E0139021901E09A4209D013F8010FF2
:1037700011F801CF6045F7D0A0EB0C0030BC7047CA
:10378000002030BC7047541EEAE700BF99B110B466
:10379000034601EB000C01E09C4508D01A460133BA
:1037A0001478002CF8D1101A5DF8044B70470846C5
:1037B0005DF8044B70470846704700BF70B50C4673
:1037C000084D03460026204611461C462E6004F094
:1037D0009BFC431C00D070BD2B68002BFBD02360EA
:1037E00070BD00BF7002002004F08CBC08B50268F8
:1037F000034B9A4200D008BD00F078FCFBE700BF05
:10380000002C014072B6FEE710B594B006AC382229
:1038100000212046FCF7D2FD002001900290039089
:103820000490059001F03AFD022306934FF4807254
:10383000099240220A920D930E9304220F92552270
:103840001092119312931393204600F08DFC78B9D7
:103850000F230193032302930023039304930593FF
:1038600004210DEB010000F035FF18B914B010BDB4
:10387000FFF7C8FFFFF7C6FF08B500F028FCFFF709
:10388000C3FF00F00BF800F0BBF800F0E3F804F021
:1038900081F800F0A5F804F08FF8FEE784B0134B30
:1038A000DA6C42F00402DA64DA6C02F0040200928C
:1038B000009ADA6C42F02002DA64DA6C02F020023C
:1038C0000192019ADA6C42F00102DA64DA6C02F0D9
:1038D00001020292029ADA6C42F00202DA64DB6CB4
:1038E00003F002030393039B04B0704700100240EF
:1038F00030B5A5B02C4B01932C4B00932C4B2D4A8B
:103900002D49012005F008F91FAC204605F086F886
:103910002A4B1F932A4B20932A4B21932A4B229305
:10392000204605F089F838B302AC204605F0A2F82D
:103930000DF12C0EA446BCE80F00AEE80F00DCF839
:103940000030CEF8003010AD0BAB002211462846F7
:1039500004F0A2FF09AC2B461C4A1D49204604F086
:10396000E5FF05F05FFD02461A4B21461EA805F053
:1039700019F800231D930EE09B211748FCF77CFDEE
:10398000D2E7BC211548FCF777FD1D9B01331D9341
:103990000A2004F087F800221DA91EA804F058FF91
:1039A0000028EED1F1E700BFF1850008B7850008D7
:1039B000A985000891850008380300202D8400089F
:1039C0004D8400086D840008AD840008901701083C
:1039D000A0110108AC11010878110108C0110108FB
:1039E00008B5044A0021044804F002F8034B1860AB
:1039F00008BD00BFC4170108F13800087402002098
:103A000000B583B0124B9A6C42F004029A649A6C2F
:103A100002F004020092009A9A6C42F001029A6449
:103A20009B6C03F001030193019B002205210B20F5
:103A300001F016FD0B2001F023FD002205210C20D2
:103A400001F00EFD0C2001F01BFD03B05DF804FB3E
:103A50000010024008B51748174B03604FF4E133DC
:103A6000436000238360C36003610C224261836171
:103A7000C36103624362836202F063FB70B9002199
:103A80000C4802F057FC60B900210A4802F077FCAC
:103A900050B9084802F02FFC48B908BDFFF7B2FE44
:103AA000EDE7FFF7AFFEEFE7FFF7ACFEF1E7FFF75B
:103AB000A9FEF2E7380300200044004030B59DB075
:103AC000044600211791189119911A911B915422C3
:103AD00002A8FCF773FC2268364B9A4201D01DB055
:103AE00030BD0223029302A800F038FF002857D10E
:103AF000314B9A6D42F400329A659A6D02F40032AD
:103B00000092009ADA6C42F00102DA64DB6C03F096
:103B100001030193019B0C231793022318930025A3
:103B200019951A9507231B9317A94FF0904001F0A0
:103B3000D1F82248224B03601A2343608560C56098
:103B400080230361456185612023C3614FF44053A5
:103B5000036201F013FA30BB184BC4F880309C624A
:103B60001848194B03601B23436010238360002314
:103B7000C3608022026143618361C3614FF440539B
:103B8000036201F0FBF988B90E4BE3679C620022E7
:103B90000521262001F064FC262001F071FC9EE73F
:103BA000FFF730FEA4E7FFF72DFED5E7FFF72AFE6B
:103BB000EAE700BF0044004000100240D8020020A5
:103BC00008000240780200201C000240FEE7FEE7E9
:103BD000FEE7FEE7FEE7704708B5024801F0FAFA93
:103BE00008BD00BFD802002008B5024801F0F2FA73
:103BF00008BD00BF7802002008B5024800F0C6F8F2
:103C000008BD00BFCC03002008B5024801F096FDB6
:103C100008BD00BF3803002000B583B00E4B1A6EFC
:103C200042F001021A661A6E02F001020092009A36
:103C30009A6D42F080529A659B6D03F08053019318
:103C4000019B00220F216FF0010001F009FC01F03F
:103C5000ABFB03B05DF804FB0010024030B589B047
:103C600004461D4B1A6E42F400621A661B6E03F482
:103C700000630193019B02A903A800F051FE00F02C
:103C80003DFE164AA2FB00239B0C013B1448154A3B
:103C9000026040F2E732C260436000230361836048
:103CA00000F0DEF9054610B1284609B030BD0C48D9
:103CB00000F01EF805460028F6D1192001F0E0FBBF
:103CC0000F2C01D90125EFE700222146192001F030
:103CD000C7FB054B1C60E7E70010024083DE1B4377
:103CE000CC030020002C0140600000207047000041
:103CF00090F83D30012B3AD1022380F83D30026824
:103D0000D36843F00103D36003681C4A934220D078
:103D1000B3F1804F1DD0A2F59432934219D002F531
:103D20008062934215D002F58062934211D002F571
:103D3000943293420DD002F54062934209D002F5CD
:103D40008052934205D01A6842F001021A600020A6
:103D5000704799680A4A0A40062A0AD0B2F5803F9D
:103D600009D01A6842F001021A6000207047012051
:103D70007047002070470020704700BF002C0140B2
:103D800007000100704770477047704770B50546DF
:103D90000368DE681C6914F0020F10D016F0020FE1
:103DA0000DD06FF002021A610123037703689B694B
:103DB00013F0030F7CD0FFF7E6FF00232B7714F0FE
:103DC000040F12D016F0040F0FD02B686FF004020E
:103DD0001A6102232B772B689B6913F4407F6DD007
:103DE0002846FFF7D0FF00232B7714F0080F12D0DE
:103DF00016F0080F0FD02B686FF008021A61042329
:103E00002B772B68DB6913F0030F5ED02846FFF792
:103E1000BAFF00232B7714F0100F12D016F0100FFA
:103E20000FD02B686FF010021A6108232B772B68D4
:103E3000DB6913F4407F4FD02846FFF7A4FF00232F
:103E40002B7714F0010F02D016F0010F4BD114F4B0
:103E5000025F02D016F0800F4DD114F4807F02D0A3
:103E600016F0800F4FD114F0400F02D016F0400F23
:103E700051D114F0200F02D016F0200F53D114F4BA
:103E8000801F02D016F4801F55D114F4001F02D0F9
:103E900016F4001F57D114F4800F02D016F4800FCF
:103EA00059D114F4000F02D016F4000F5BD170BD8D
:103EB000FFF768FF2846FFF767FF7EE72846FFF712
:103EC00061FF2846FFF760FF8DE72846FFF75AFF9E
:103ED0002846FFF759FF9CE72846FFF753FF28467F
:103EE000FFF752FFABE72B686FF001021A6128461B
:103EF000FFF77CFCABE72B686FF402521A6128468F
:103F000000F0DFF8A9E72B686FF480721A61284689
:103F100000F0D8F8A7E72B686FF040021A61284636
:103F2000FFF733FFA5E72B686FF020021A612846E0
:103F300000F0C6F8A3E72B686FF480121A612846D8
:103F400000F0C1F8A1E72B686FF400121A6128464F
:103F500000F0BAF89FE72B686FF480021A612846D8
:103F600000F0B3F89DE72B686FF400021A61284651
:103F700000F0ACF89BE700000368384A904216D086
:103F8000B0F1804F13D0A2F5943290420FD002F5D9
:103F9000806290420BD002F58062904207D002F519
:103FA0009432904203D002F5E052904203D123F0C4
:103FB00070034A681343294A904222D0B0F1804FDF
:103FC0001FD0A2F5943290421BD002F5806290423D
:103FD00017D002F58062904213D002F594329042DD
:103FE0000FD002F5406290420BD002F58062904201
:103FF00007D002F58062904203D002F50062904241
:1040000003D123F44073CA68134323F080034A6941
:1040100013438A68C2620A688262104A904213D0CF
:1040200002F5006290420FD002F5406290420BD040
:1040300002F58062904207D002F58062904203D080
:1040400002F50062904201D10A690263026842F0FF
:10405000040202600122426103607047002C0140AB
:1040600060B310B5044690F83D3013B3022384F8D2
:104070003D30214651F8040BFFF77EFF012384F801
:10408000483084F83E3084F83F3084F8403084F87B
:10409000413084F8423084F8433084F8443084F866
:1040A000453084F8463084F8473084F83D300020AD
:1040B00010BD80F83C30FFF719FED7E701207047AC
:1040C000704770477047704770477047704710B52A
:1040D000032001F0B3F90F20FFF7C0FD10B1012458
:1040E000204610BD0446FFF797FDF9E7034A136821
:1040F000034909680B441360704700BF180400208F
:104100005C000020014B1868704700BF18040020B5
:10411000124BDA6802F00302DB68C3F303130133C6
:10412000032A11D00E48B0FBF3F00C4BDB68C3F34D
:10413000062303FB00F0094BDB68C3F34163013343
:104140005B00B0FBF3F070470648B0FBF3F0034BA5
:10415000DB68C3F3062303FB00F0ECE7001002402A
:104160000024F40000366E01002800F04F8270B584
:1041700082B00446036813F0010F37D0A44A936855
:1041800003F00C03D26802F003020C2B23D0082B9F
:1041900023D06368B3F5803F4ED0B3F5A02F51D044
:1041A0009B4B1A6822F480321A601A6822F480222B
:1041B0001A606368002B52D0FFF7A4FF0546944BAA
:1041C0001B6813F4003F11D1FFF79CFF401B6428CC
:1041D000F5D9032023E2032AD9D18D4B1B6813F4B0
:1041E000003F03D06368002B00F01282236813F0B5
:1041F000020F5DD0864A936803F00C03D26802F088
:1042000003020C2B3AD0042B3AD0E368002B75D074
:104210007F4A136843F480731360FFF773FF05460A
:104220007B4B1B6813F4806F5FD1FFF76BFF401B64
:104230000228F5D90320F2E1754A136843F480336C
:104240001360B6E703F18043A3F53C331A6842F4E8
:1042500080221A601A6842F480321A60A9E7FFF7D8
:1042600051FF05466A4B1B6813F4003FBED0FFF7B1
:1042700049FF401B6428F5D90320D0E1022AC2D1AE
:10428000634B1B6813F4806F03D0E368002B00F0CE
:10429000C1815F4A536823F0FE43216943EA016309
:1042A00053605C4B1868FFF7D9FC002840F0B481DC
:1042B000236813F0080F4CD063699BB3544AD2F8BB
:1042C000943043F00103C2F89430FFF71BFF05461A
:1042D0004F4BD3F8943013F0020F3AD1FFF712FF8F
:1042E000401B0228F4D9032099E1494A536823F07E
:1042F000FE43216943EA01635360D9E7444A1368E6
:1043000023F480731360FFF7FDFE0546404B1B68E6
:1043100013F4806FCCD0FFF7F5FE401B0228F5D9CF
:1043200003207CE13A4AD2F8943023F00103C2F82A
:104330009430FFF7E7FE0546354BD3F8943013F081
:10434000020F06D0FFF7DEFE401B0228F4D903203F
:1043500065E1236813F0040F00F081802C4B9B6D06
:1043600013F0805F36D12A4B9A6D42F080529A65E5
:104370009B6D03F080530193019B0125264B1B6825
:1043800013F4807F28D0A368012B39D0052B45D0AA
:104390001F4BD3F8902022F00102C3F89020D3F8ED
:1043A000902022F00402C3F89020A368002B43D091
:1043B000FFF7A8FE0646164BD3F8903013F0020F15
:1043C0004CD1FFF79FFE801B41F288339842F2D90F
:1043D000032024E10025D1E70F4A136843F48073DA
:1043E0001360FFF78FFE06460B4B1B6813F4807FAC
:1043F000C9D1FFF787FE801B0228F5D903200EE103
:10440000034AD2F8903043F00103C2F89030CCE771
:10441000001002406000002000700040884BD3F87C
:10442000902042F00402C3F89020D3F8902042F08C
:104430000102C3F89020B8E7FFF764FE0646804B00
:10444000D3F8903013F0020F08D0FFF75BFE801B0B
:1044500041F288339842F2D90320E0E0E5B92368BD
:1044600013F0200F35D0A369E3B1754AD2F8983024
:1044700043F00103C2F89830FFF744FE0546704B45
:10448000D3F8983013F0020F23D1FFF73BFE401B07
:104490000228F4D90320C2E0694A936D23F08053C7
:1044A0009365DCE7664AD2F8983023F00103C2F83E
:1044B0009830FFF727FE0546614BD3F8983013F08C
:1044C000020F06D0FFF71EFE401B0228F4D903207E
:1044D000A5E0E369002B00F0A180594A926802F040
:1044E0000C020C2A64D0022B13D0554A136823F017
:1044F00080731360FFF706FE0446514B1B6813F0F0
:10450000007F4ED0FFF7FEFD001B0228F5D90320E7
:1045100085E04B4A136823F080731360FFF7F2FDC8
:104520000546474B1B6813F0007F06D0FFF7EAFDF6
:10453000401B0228F5D9032071E0414AD368414964
:104540001940236A606A013843EA0013A06A43EA0B
:104550000023206B4008013843EA4053606B400859
:10456000013843EA4063E06A43EAC0631943D1601B
:10457000136843F080731360D36843F08073D36093
:10458000FFF7C0FD04462E4B1B6813F0007F06D1D9
:10459000FFF7B8FD001B0228F5D903203FE00020FB
:1045A0003DE0274AD168284B0B40D360002036E01D
:1045B000012B36D0224BDB6803F00301226A9142C3
:1045C00031D103F0F002616A0139B2EB011F2CD145
:1045D00003F4FE42A16AB2EB012F28D103F0784226
:1045E000E16AB2EBC16F24D103F4C001226B52081F
:1045F000013AB1EB425F1ED103F0C063626B520817
:10460000013AB3EB426F18D1002008E00120704757
:10461000012004E0012002E0012000E0002002B0BF
:1046200070BD0120FBE70120F9E70120F7E7012039
:10463000F5E70120F3E70120F1E70120EFE700BFF4
:10464000001002400C809F01FCFFEEFE1E4B9B6899
:1046500003F00C03042B33D01B4B9B6803F00C03BB
:10466000082B2FD0184B9B6803F00C030C2B01D0A8
:1046700000207047144BDA6802F00302DB68C3F3D2
:1046800003130133032A11D01048B0FBF3F00E4B93
:10469000DB68C3F3062303FB00F00B4BDB68C3F3BB
:1046A000416301335B00B0FBF3F070470848B0FB97
:1046B000F3F0054BDB68C3F3062303FB00F0ECE7E4
:1046C0000248704702487047001002400024F4007E
:1046D00000366E01002800F0E680F8B50C4605466D
:1046E000744B1B6803F00F038B420BD2714A1368A3
:1046F00023F00F030B431360136803F00F038B4287
:1047000040F0D3802E6816F001065FD06B68032B53
:104710002FD0022B4DD0684B1B6813F4806F00F034
:10472000C680FFF793FF654B98424DD9624A936864
:1047300023F0F00343F08003936080265E4A936881
:1047400023F0030369680B439360FFF7DBFC074624
:10475000594B9B6803F00C036A68B3EB820F35D0AA
:10476000FFF7D0FCC01B41F288339842F0D90320F8
:1047700078E0514B1B6813F0007F01D1012071E0FC
:10478000FFF7C6FC4D4B98421AD94B4B9B6813F070
:10479000F00F05D02E6816F00206CFD0AB688BB9AB
:1047A000454A936823F0F00343F08003936080262A
:1047B000C4E7414B1B6813F4003FB2D1012051E024
:1047C0000026BBE70026B9E70026B7E72B6813F001
:1047D000020F48D013F0040F04D0374A936843F413
:1047E000E06393602B6813F0080F06D0324A936899
:1047F00023F47C5343F4E06393602F4A936823F0DF
:10480000F003A9680B4393602A4B1B6803F00F0366
:10481000A34230D82B6813F0040F06D0264A9368C1
:1048200023F4E063E9680B4393602B6813F0080FEF
:1048300007D0214A936823F46053296943EAC103EE
:104840009360FFF703FF1C4B9B68C3F303131C4AE1
:10485000D35C03F01F03D8401A4B18601A4B18683A
:10486000FFF7FCF9F8BD802ECED1134A936823F0F0
:10487000F0039360C8E70F4A136823F00F03234344
:104880001360FFF73FFC06460A4B1B6803F00F035B
:10489000A342BFD0FFF736FC801B41F28833984219
:1048A000F2D90320DEE7012070470120DAE701207A
:1048B000D8E700BF002002400010024000B4C4044A
:1048C000181801086400002060000020014B1868DF
:1048D000704700BF6400002008B5FFF7F7FF054BE5
:1048E0009B68C3F30223044AD35C03F01F03D84040
:1048F00008BD00BF001002401018010808B5FFF7FE
:10490000E5FF054B9B68C3F3C223044AD35C03F065
:104910001F03D84008BD00BF001002401018010856
:104920000F2303600B4B9A6802F0030242609A68FF
:1049300002F0F00282609A6802F4E062C2609B6852
:10494000DB0803F4E0630361034B1B6803F00F0310
:104950000B6070470010024000200240F0B583B0A9
:104960000446036813F4002F6ED0354B9B6D13F093
:10497000805F1ED1324B9A6D42F080529A659B6DDA
:1049800003F080530193019B01262E4A136843F4E0
:1049900080731360FFF7B6FB05462A4B1B6813F4C0
:1049A000807F08D1FFF7AEFB401B0228F5D9032515
:1049B00002E00026E9E7002545BB214BD3F8903003
:1049C00013F4407318D0226D9A4212D01C4AD2F8C8
:1049D000903023F44073D2F8901041F48031C2F843
:1049E0009010D2F8901021F48031C2F89010C2F8E3
:1049F000903013F0010F10D145B9114AD2F8903020
:104A000023F44073216D0B43C2F89030EEB10C4A91
:104A1000936D23F08053936517E0FFF773FB074610
:104A2000074BD3F8903013F0020FE5D1FFF76AFB84
:104A3000C01B41F288339842F2D90325DCE700BF5E
:104A400000100240007000400025236813F0010FA1
:104A500008D09F4AD2F8883023F0030361680B43E3
:104A6000C2F88830236813F0020F08D0984AD2F8B1
:104A7000883023F00C03A1680B43C2F88830236808
:104A800013F0040F08D0924AD2F8883023F0300394
:104A9000E1680B43C2F88830236813F0080F08D090
:104AA0008B4AD2F8883023F0C00321690B43C2F847
:104AB0008830236813F0100F08D0854AD2F8883068
:104AC00023F4407361690B43C2F88830236813F004
:104AD000200F08D07E4AD2F8883023F44063A169C1
:104AE0000B43C2F88830236813F0400F08D0784A8F
:104AF000D2F8883023F44053E1690B43C2F8883080
:104B0000236813F0800F08D0714AD2F8883023F45C
:104B10004043216A0B43C2F88830236813F4807F36
:104B200008D06B4AD2F8883023F44033616A0B43D3
:104B3000C2F88830236813F4003F08D0644AD2F8E2
:104B40009C3023F00303A16A0B43C2F89C30236816
:104B500013F4007F08D05E4AD2F8883023F4402353
:104B6000E16A0B43C2F88830236813F4806F0CD0DD
:104B7000574AD2F8883023F44013216B0B43C2F814
:104B80008830236BB3F5801F79D0236813F4006F4E
:104B90000CD04F4AD2F8883023F44003616B0B43AA
:104BA000C2F88830636BB3F5800F6DD0236813F4BF
:104BB000805F0CD0464AD2F8883023F04073A16B56
:104BC0000B43C2F88830A36BB3F1807F61D02368B8
:104BD00013F4005F0CD03E4AD2F8883023F04063D3
:104BE000E16B0B43C2F88830E36BB3F1006F55D033
:104BF000236813F4804F0CD0354AD2F8883023F064
:104C00004063216C0B43C2F88830236CB3F1006F12
:104C100049D0236813F4004F0CD02D4AD2F88830C5
:104C200023F04053616C0B43C2F88830636CB3F1DE
:104C3000805F3DD0236813F4803F0CD0244AD2F823
:104C4000883023F04043A16C0B43C2F88830A36C3A
:104C5000B3F1804F31D0236813F4802F0CD01C4A5D
:104C6000D2F89C3023F44013E16C0B43C2F89C3023
:104C7000E36CB3F5001F25D0284603B0F0BDD36820
:104C800043F48013D36080E7D36843F48013D36088
:104C90008CE7D36843F48013D36098E7D36843F478
:104CA0008013D360A4E7D36843F48013D360B0E7E4
:104CB000D36843F48033D360BCE7D36843F48033D4
:104CC000D360C8E7D36843F48013D360D4E700BF50
:104CD00000100240F0B583B0002366E085685E00F6
:104CE0000324B44025EA0405CC68B4402C43846016
:104CF000456825EA0C054C68C4F300149C402C431D
:104D0000446063E08C68012C65D173E0DD080835F0
:104D100050F8254003F0070C4FEA8C0C4FF00F0EB3
:104D20000EFA0CFE24EA0E0E0C6904FA0CF444EAA6
:104D30000E0440F8254062E0052400E0002404FA57
:104D40000EF42C430CF1020C564D45F82C40564CF9
:104D5000A568D44325EA02064F6817F4801F01D0E6
:104D600042EA0506504DAE60ED6804EA05064F685C
:104D700017F4001F01D042EA05064B4DEE606D6846
:104D800004EA05064F6817F4003F01D042EA050621
:104D9000454D6E602D682C404E6816F4803F01D062
:104DA00042EA0504404A146001330A6832FA03F407
:104DB00076D04FF0010C0CFA03FC1CEA0202F3D08F
:104DC0004C6804F00304013C012C87D94C6804F0C2
:104DD0000304032C96D0C4684FEA430E4FF0030C33
:104DE0000CFA0EFC24EA0C0C8C6804FA0EF444EA6B
:104DF0000C04C4604C6804F00304022C86D00468E0
:104E00004FEA430E4FF0030C0CFA0EFC24EA0C0C94
:104E10004C6804F0030404FA0EF444EA0C04046041
:104E20004C6814F4403FBFD0204C256E45F001057E
:104E30002566246E04F001040194019C4FEA930C52
:104E40000CF10205174C54F8255003F0030E4FEAFD
:104E50008E0E0F2404FA0EF425EA0405B0F1904FEB
:104E60003FF46CAF124CA04212D004F58064A04213
:104E700010D004F58064A0420ED004F58064A042F6
:104E80000CD004F58064A0423FF456AF062456E7E8
:104E9000012454E7022452E7032450E704244EE798
:104EA00003B0F0BD000001400004014000100240CA
:104EB0000004004830B4C46C056D6560446D14B1E5
:104EC000846DC56D6560446C04F01F0C012404FA08
:104ED0000CF4056C6C60046863608368102B05D06B
:104EE000036899600368DA6030BC704703689A60B1
:104EF0000368D960F8E700000368104A934214D8A9
:104F0000DBB2083B0E4AA2FB03231B090D49426C8E
:104F100022F003020A4482640B4AC26403F01F03B6
:104F2000012202FA03F303657047DBB2083B044A2F
:104F3000A2FB03231B0908330449E8E707040240E6
:104F4000CDCCCCCC000802408008024020080240B2
:104F5000436803F07F03074A1A4492004265064AF9
:104F60008265013B03F01F03012202FA03F3C365CC
:104F7000704700BF3F8200104009024000285BD00C
:104F800010B5044602682D4B9A423DD82C4B134471
:104F90002C49A1FB03131B099B0043642A4B0364A8
:104FA000022384F8253011686FF30E11A368E068BE
:104FB00003432069034360690343A0690343E06935
:104FC0000343206A03430B4313602046FFF794FF1B
:104FD000A368B3F5804F22D06368A26C03F07F030F
:104FE0001360E36C226D5A606368013B032B19D98F
:104FF00000236365A365E3650020E063012384F873
:10500000253084F8240010BD104B13440D49A1FB3A
:1050100003131B099B0043640D4B0364C0E700238B
:105020006360D9E72046FFF793FF636D00221A60A3
:10503000A36DE26D5A60DFE701207047070402406C
:10504000F8FFFDBFCDCCCCCC00000240F8FBFDBF8B
:105050000004024038B5044690F82400012840D0EE
:10506000012084F8240094F82500012804D00023AE
:1050700084F82430022038BD022084F82500002066
:10508000E0632568286820F0010028602046FFF7CB
:1050900011FF236BD3B12268136843F00E03136032
:1050A000A36C1A6812F4803F03D01A6842F480722D
:1050B0001A60636D1BB11A6842F480721A6022682C
:1050C000136843F0010313600020D4E722681368DB
:1050D00023F0040313602268136843F00A0313608B
:1050E000DEE70220C7E70346002833D090F82520EA
:1050F000022A09D00422C2630120012283F825205C
:10510000002283F82420704701680A6822F0010217
:105110000A6001680A6822F00E020A60816C0A685F
:1051200022F480720A60426C02F01F01006C0122BE
:105130008A404260DA6C196D51605A6D42B1116853
:1051400021F4807111609A6DD96D51600020D4E70F
:105150000020D2E70120704708B590F82530022BD7
:1051600009D00423C363012380F82530002280F88E
:105170002420184608BD0268136823F00103136059
:105180000268136823F00E031360826C136823F423
:1051900080731360436C03F01F02016C0123934082
:1051A0004B60C36C026D5A60436D33B11A6822F4D0
:1051B00080721A60836DC26D5A60012380F82530B9
:1051C000002380F82430836B13B198470020D1E787
:1051D0000020CFE738B5036C196804682568436C74
:1051E00003F01F0304229A400A4215D015F0040F61
:1051F00012D0236813F0200F03D1236823F0040397
:105200002360436C03F01F02016C042393404B6046
:10521000036B03B1984738BD02229A400A421CD062
:1052200015F0020F19D0236813F0200F06D1236860
:1052300023F00A032360012380F82530436C03F038
:105240001F02016C022393404B60002380F824303E
:10525000C36A002BDFD09847DDE7082202FA03F388
:105260000B42D8D015F0080FD5D0236823F00E03D9
:105270002360436C03F01F03016C012202FA03F365
:105280004B60C26380F82520002380F82430436BF4
:10529000002BC0D09847BEE7C06B7047002836D1BE
:1052A0003E4B1B6803F4C063B3F5806F08D03B4AE4
:1052B000D2F8803023F48073C2F880300020704729
:1052C000364AD2F8803023F48073C2F880301368F5
:1052D00023F4C06343F400731360314B1B68322224
:1052E00002FB03F32F4AA2FB03239B0C013300E0D4
:1052F000013B2A4A526912F4806F01D0002BF7D18A
:10530000264B5B6913F4806F44D100207047B0F5E1
:10531000007F08D0214A136823F4C06343F48063FC
:105320001360002070471D4B1B6803F4C063B3F586
:10533000806F08D0194AD2F8803043F48073C2F8E5
:10534000803000207047154AD2F8803043F48073D3
:10535000C2F88030136823F4C06343F40073136011
:105360000F4B1B68322202FB03F30E4AA2FB0323FE
:105370009B0C013300E0013B084A526912F4806F34
:1053800001D0002BF7D1054B5B6913F4806F03D17B
:1053900000207047032070470320704700700040D2
:1053A0006400002083DE1B43024A936843F4804379
:1053B0009360704700700040002807DB00F01F0278
:1053C000400901239340024A42F82030704700BF51
:1053D00000E100E0002808DB0901C9B200F16040EB
:1053E00000F5614080F80013704700F00F000901DC
:1053F000C9B2014B1954704714ED00E000B500F03C
:105400000700C0F1070CBCF1040F28BF4FF0040CDB
:10541000031D062B0FD9C31E4FF0FF3E0EFA0CF0F2
:1054200021EA000199400EFA03FE22EA0E0241EA47
:1054300002005DF804FB0023EEE70000074AD36892
:1054400023F4E0631B041B0C000200F4E060034340
:1054500043F0BF6343F40033D360704700ED00E0D6
:1054600010B50446054BD868C0F30220FFF7C6FF0D
:1054700001462046FFF7AEFF10BD00BF00ED00E083
:1054800008B5FFF799FF08BD026852E8003F23F016
:10549000C00342E800310029F6D1026802F1080396
:1054A00053E8003F23F40003083242E800310029AA
:1054B000F3D12023C0F888307047026852E8003FDB
:1054C00023F4907342E800310029F6D1026802F11A
:1054D000080353E8003F23F0805323F00103083210
:1054E00042E800310029F1D1C36E012B06D0202300
:1054F000C0F88C300023C36643677047026852E8E7
:10550000003F23F0100342E800310029F6D1EEE716
:105510001346D0F88820202A3DD110B50446002932
:105520003BD0002B3BD00165A0F85430A0F856309A
:105530000022C0F890202122C0F88820C26FCAB192
:105540001849D162C26F18491163C26F174951637C
:10555000C26F0021916302682832016DC06FFFF7AE
:1055600079FD38B11023C4F890302023C4F8883076
:1055700001200FE0236840221A62226802F108032A
:1055800053E8003F43F08003083242E8003100292D
:10559000F3D1002010BD022070470120FAE701205E
:1055A000F8E700BF65560008D3560008E356000828
:1055B00038B50446D0F88820D0F88C5003689B6832
:1055C00013F0800F01D0212A08D023689B6813F0C4
:1055D000400F44D0222D20D0002041E0226802F16B
:1055E000080353E8003F23F08003083242E800310B
:1055F0000029F3D1E06F10B1FFF775FD18B920460F
:10560000FFF742FFE1E7E06FFFF746FE2028F6D103
:105610001023C4F89030032022E0226802F108032E
:1056200053E8003F23F04003083242E800310029EC
:10563000F3D1D4F8800010B1FFF755FD20B9204612
:10564000FFF73BFF00200BE0D4F88000FFF724FEBB
:105650002028F4D11023C4F89030032000E000206B
:1056600038BD704708B50346806A1B681B6813F095
:10567000200F18D10023A0F85630026802F1080369
:1056800053E8003F23F08003083242E8003100294C
:10569000F3D1026852E8003F43F0400342E8003192
:1056A0000029F6D108BDFFF7DCFFFBE708B502686B
:1056B00052E8003F23F0400342E800310029F6D1D0
:1056C0002023C0F8883000238367FFF7CAFF08BD96
:1056D000704708B5806AFFF7FBFF08BD7047704749
:1056E000704738B5846AD4F88820D4F88C50236881
:1056F0009B6813F0800F01D0212A10D023689B688B
:1057000013F0400F01D0222D0DD0D4F8903043F08B
:105710001003C4F890302046FFF7E2FF38BD204662
:10572000FFF7B2FEEAE72046FFF7C7FEEDE708B550
:10573000806AFFF7D5FF08BD7047000070B50446CA
:105740000268D3691068916840F60F0C13EA0C0FD9
:105750000DD113F0200F10D010F0200F02D111F056
:10576000805F0AD0636F93B3204698472FE09D4D2A
:105770000D402DD19C4E30422AD1E56E012D00F016
:10578000C08013F4801F03D011F4800F40F06C81AF
:1057900013F0800F07D010F0800F40F06C8111F4EF
:1057A000000F40F0688113F0400F03D010F0400F5D
:1057B00040F0688113F4000F03D010F0804F40F0E8
:1057C000658113F0807F02D00028C0F2638170BD34
:1057D00013F0010F09D010F4807F06D00126166265
:1057E000D4F890203243C4F8902013F0020F0BD06D
:1057F00011F0010F08D0226802261662D4F890201A
:1058000042F00402C4F8902013F0040F0BD011F002
:10581000010F08D0226804261662D4F8902042F0C6
:105820000202C4F8902013F0080F0BD010F0200FE4
:1058300000D13DB1226808251562D4F890202A4392
:10584000C4F8902013F4006F0CD010F0806F09D0D2
:1058500022684FF400651562D4F8902042F02002CF
:10586000C4F89020D4F89020002AB0D013F0200F74
:1058700009D010F0200F02D111F0805F03D0636FC8
:105880000BB120469847D4F8902023689B6813F00A
:10589000400F02D112F0280F2CD02046FFF70DFE4A
:1058A00023689B6813F0400F20D0226802F10803A0
:1058B00053E8003F23F04003083242E8003100295A
:1058C000F3D1D4F880306BB1484A9A63D4F88000A1
:1058D000FFF742FC00283FF47AAFD4F88000836BD6
:1058E000984774E72046FFF7FBFE70E72046FFF776
:1058F000F7FE6CE72046FFF7F3FE0023C4F8903074
:1059000065E713F0100F3FF43CAF10F0100F3FF4B9
:1059100038AF1023136223689B6813F0400F67D0E1
:10592000D4F880100A6853689BB2002B4AD0B4F8B0
:105930005C00984246D9A4F85E300B681B6813F0EF
:10594000200F32D1226852E8003F23F4807342E8EE
:1059500000310029F6D1226802F1080353E8003F24
:1059600023F00103083242E800310029F3D1226814
:1059700002F1080353E8003F23F04003083242E8F5
:1059800000310029F3D12023C4F88C300023E366D2
:10599000226852E8003F23F0100342E8003100295A
:1059A000F6D1D4F88000FFF79EFB02232367B4F8FA
:1059B0005C10B4F85E309BB2C91A89B22046FFF77A
:1059C000BBFE04E7B4F85C1099427FF400AF1368A3
:1059D00013F0200F3FF4FBAE022323672046FFF7AE
:1059E000ABFEF4E601000010200100042F57000870
:1059F000B4F85C10B4F85E309BB2C91A89B2B4F83E
:105A00005E309BB2002B3FF4E2AE00293FF4DFAEE4
:105A1000226852E8003F23F4907342E800300028E7
:105A2000F6D1226802F1080353E8003F23F08053C7
:105A300023F00103083242E800300028F1D120238E
:105A4000C4F88C300023E3666367226852E8003FA5
:105A500023F0100342E800300028F6D10223236728
:105A60002046FFF769FEB2E64FF48013136220462A
:105A700000F03EFCABE6A36F002B3FF4A8AE20463F
:105A80009847A4E62046FFF711FEA0E6204600F066
:105A900031FC9CE6204600F02CFC98E608B5034655
:105AA000806A01220267C26E012A13D1B0F85C102D
:105AB0004A08A0F85E201B685B689BB2994201D33C
:105AC000A0F85E30B0F85E309BB2C91A89B2FFF719
:105AD00033FE08BDFFF703FEFBE708B58446806A86
:105AE000DCF800301B6813F0200F29D10023A0F848
:105AF0005E30026852E8003F23F4807342E80031D0
